{"abi":[{"type":"function","name":"burn","inputs":[{"name":"account","type":"address","internalType":"address"},{"name":"amount","type":"uint256","internalType":"uint256"}],"outputs":[],"stateMutability":"nonpayable"},{"type":"function","name":"mint","inputs":[{"name":"account","type":"address","internalType":"address"},{"name":"amount","type":"uint256","internalType":"uint256"}],"outputs":[],"stateMutability":"nonpayable"},{"type":"event","name":"Burned","inputs":[{"name":"account","type":"address","indexed":true,"internalType":"address"},{"name":"amount","type":"uint256","indexed":false,"internalType":"uint256"}],"anonymous":false},{"type":"event","name":"Minted","inputs":[{"name":"account","type":"address","indexed":true,"internalType":"address"},{"name":"amount","type":"uint256","indexed":false,"internalType":"uint256"}],"anonymous":false}],"bytecode":{"object":"0x6080604052348015600f57600080fd5b506101538061001f6000396000f3fe608060405234801561001057600080fd5b50600436106100365760003560e01c806340c10f191461003b5780639dc29fac14610050575b600080fd5b61004e6100493660046100e5565b610063565b005b61004e61005e3660046100e5565b6100aa565b816001600160a01b03167f30385c845b448a36257a6a1716e6ad2e1bc2cbe333cde1e69fe849ad6511adfe8260405161009e91815260200190565b60405180910390a25050565b816001600160a01b03167f696de425f79f4a40bc6d2122ca50507f0efbeabbff86a84871b7196ab8ea8df78260405161009e91815260200190565b600080604083850312156100f857600080fd5b82356001600160a01b038116811461010f57600080fd5b94602093909301359350505056fea2646970667358221220a78b72b3693d8372bfca448d8fe0daef7b83d399c4e2bec9ace3e8ffacca5c4964736f6c634300081c0033","linkReferences":{}},"methodIdentifiers":{"burn(address,uint256)":"9dc29fac","mint(address,uint256)":"40c10f19"},"id":26}