{"abi":[{"type":"constructor","inputs":[{"name":"snMessaging","type":"address","internalType":"address"},{"name":"l2Bridge","type":"address","internalType":"address"},{"name":"token","type":"address","internalType":"address"}],"stateMutability":"nonpayable"},{"type":"function","name":"consumeMessage","inputs":[{"name":"fromAddress","type":"uint256","internalType":"uint256"},{"name":"payload","type":"uint256[]","internalType":"uint256[]"}],"outputs":[],"stateMutability":"nonpayable"},{"type":"function","name":"initiate_withdraw","inputs":[{"name":"recipientAddress","type":"uint256","internalType":"uint256"},{"name":"amount","type":"uint256","internalType":"uint256"}],"outputs":[],"stateMutability":"payable"},{"type":"error","name":"InvalidPayload","inputs":[]}],"bytecode":{"object":"0x6080604052348015600f57600080fd5b50604051610411380380610411833981016040819052602c916088565b600180546001600160a01b039485166001600160a01b03199182161790915560008054928516928216929092179091556002805492909316911617905560c4565b80516001600160a01b0381168114608357600080fd5b919050565b600080600060608486031215609c57600080fd5b60a384606d565b925060af60208501606d565b915060bb60408501606d565b90509250925092565b61033e806100d36000396000f3fe6080604052600436106100295760003560e01c8063c5780d621461002e578063df46e31414610050575b600080fd5b34801561003a57600080fd5b5061004e6100493660046101f5565b610063565b005b61004e61005e366004610276565b61018e565b60015460405162b2775760e61b81526001600160a01b0390911690632c9dd5c09061009690869086908690600401610298565b6020604051808303816000875af11580156100b5573d6000803e3d6000fd5b505050506040513d601f19601f820116820180604052508101906100d991906102d9565b50600281146100fb57604051637c6953f960e01b815260040160405180910390fd5b600082826000818110610110576101106102f2565b90506020020135905060008383600181811061012e5761012e6102f2565b9050602002013590506000821180156101475750600081115b6101875760405162461bcd60e51b815260206004820152600d60248201526c496e76616c69642076616c756560981b604482015260640160405180910390fd5b5050505050565b6040805160018082528183019092526000916020808301908036833701905050905082816000815181106101c4576101c46102f2565b60200260200101818152505081816001815181106101e4576101e46102f2565b602002602001018181525050505050565b60008060006040848603121561020a57600080fd5b83359250602084013567ffffffffffffffff81111561022857600080fd5b8401601f8101861361023957600080fd5b803567ffffffffffffffff81111561025057600080fd5b8660208260051b840101111561026557600080fd5b939660209190910195509293505050565b6000806040838503121561028957600080fd5b50508035926020909101359150565b838152604060208201819052810182905260006001600160fb1b038311156102bf57600080fd5b8260051b8085606085013791909101606001949350505050565b6000602082840312156102eb57600080fd5b5051919050565b634e487b7160e01b600052603260045260246000fdfea264697066735822122014c098fc88d65dbb8bc54fab528c9d074965b0e60eea689048daeefc89de0e3864736f6c634300081c0033","linkReferences":{}},"methodIdentifiers":{"consumeMessage(uint256,uint256[])":"c5780d62","initiate_withdraw(uint256,uint256)":"df46e314"},"id":27}